:020000040800F2
:100000000008002055020008451B00083D1B0008A1
:10001000411B0008010400086D1D000800000000DD
:100020000000000000000000000000004D1B000860
:100030000504000800000000491B0008511B0008CF
:100040006F0200086F0200086F0200086F020008CC
:100050006F0200086F0200086F0200086F020008BC
:100060006F0200086F0200086F0200086F020008AC
:100070006F0200086F0200086F0200086F0200089C
:100080006F0200086F0200086F0200086F0200088C
:100090006F0200086F0200086F0200086F0200087C
:1000A0006F0200086F0200086F0200086F0200086C
:1000B0006F0200086F0200080D1C00086F020008A4
:1000C0006F0200086F0200086F0200086F0200084C
:1000D0006F0200086F0200086F0200086F0200083C
:1000E0006F0200086F0200086F0200086F0200082C
:1000F0006F0200086F0200086F0200086F0200081C
:100100006F0200086F0200086F0200086F0200080B
:100110006F0200086F0200081D1C00086F02000833
:100120006F0200086F0200086F0200086F020008EB
:100130006F0200086F0200086F0200086F020008DB
:100140006F0200086F0200086F0200086F020008CB
:100150006F0200086F0200086F0200086F020008BB
:100160006F0200086F0200086F0200086F020008AB
:100170006F0200086F0200086F0200080000000014
:100180006F0200086F02000800F002F800F052F859
:1001900014A696E8000CB244B344DA4501D100F04D
:1001A00049F8BAE80F000FA696E83000A5EB040561
:1001B00004EB0607AAEB0704A7F101074FEA1515A0
:1001C0004FEA3414A4F10104AC4201D300F032F838
:1001D00013F0010F18BFFB1A43F0010300F001F800
:1001E000DBE71847B0260000D0260000103A24BFF5
:1001F00078C878C1FAD8520724BF30C830C144BF8C
:1002000004680C6070470000704700000023002461
:1002100000250026103A28BF78C1FBD8520728BF16
:1002200030C148BF0B6070471FB502F019FB1FBDFE
:1002300010B510BD00F0A9F81146FFF7F5FF01F069
:100240007FFE00F0C7F803B4FFF7F2FF03BC00F035
:10025000CFF800000948804709480047FEE7FEE75D
:10026000FEE7FEE7FEE7FEE7FEE7FEE7FEE7FEE766
:1002700004480549054A064B70470000F91B000871
:10028000890100080002002000080020000400206E
:100290000004002053EA020C00F069802DE9F04BC5
:1002A0004FF00006002B1FBFB3FA83F503FA05F4E5
:1002B00024FA05F65E4012BF1643B2FA82F502FA3E
:1002C00005F4C5F120051EBF22FA05FC44EA0C0422
:1002D000203556EA044C4FEA144418BF641C4FF012
:1002E00000084FF00009904271EB030C39D300294C
:1002F00019BFB1FA81F701FA07F6B0FA80F700FAF0
:1003000007F6C7F120071EBF20FA07FC46EA0C06D5
:100310002037B6FBF4FCA7EB0507103F07F01F0BD7
:10032000CBF120062CFA06F60CFA0BFB44BFB346C1
:100330000026202FA4BF5E464FF0000B5BEA060CA0
:1003400008BF4FF0010B19EB0B0948EB0608ABFB9C
:10035000027C06FB02CC0BFB03CCC01B71EB0C0137
:10036000C1E70B46024641464846BDE8F08B13B54F
:10037000084318BF4FF0FF300146AFF30080BDE8DF
:100380001C407047704770477047754600F02CF866
:10039000AE4605006946534620F00700854618B072
:1003A00020B5FFF765FFBDE820404FF000064FF095
:1003B00000074FF000084FF0000BAC46ACE8C00956
:1003C000ACE8C009ACE8C009ACE8C00921F00701FD
:1003D0008D46704710B50446AFF300802046BDE857
:1003E0001040FFF730BF00000048704710000020A9
:1003F00001491820ABBEFEE726000200704700004E
:10040000FEE70000704700002DE9F04F81B02DEDB0
:10041000088B84B0044690F8800000287CD0206DC2
:100420008846A16EA8EB0000884275D994ED0E8B2A
:1004300094ED120B57EC186B94ED08AB94ED169BF2
:1004400051EC100B32463B4602F0F2F894ED180BDB
:1004500082460D4653EC102B3046394602F0E8F840
:100460008346894651EC1A0B52462B46CDF808A01C
:10047000019501F0DFFF53EC192B01F05BFE94F8BE
:1004800081A041EC1A0BBAF1000F84ED16AB13D129
:1004900094ED060B06460F4651EC100B5A464B46A0
:1004A00001F0C8FF02460B463046394602F0C0F85C
:1004B00041EC1A0B84ED16AB94ED1E9BCDF80C901D
:1004C00056EC1A7B55EC199B384631464A462B466A
:1004D00002F0AAF9B0EE49BAF0EE69BA40B994ED6B
:1004E0001CBB384653EC1B2B314602F0A4F928B94B
:1004F000B0EE4BAAF0EE6BAA84ED16BBBAF1000F7A
:1005000012D094ED060BDDE9011053EC102B01F035
:1005100091FF41EC1B0B09E04FF0FF3004B0BDEC44
:10052000088B01B0BDE8F08F9FED1FBB94ED0A0B67
:10053000039B51EC100B5A4601F07CFF02460B4620
:1005400051EC1A0B02F074F802460B4651EC1B0BEF
:1005500001F0F0FD4A462B4606460F4641EC1A0BC9
:1005600002F062F988B994ED1CBB304653EC1B2BAA
:10057000394602F060F9B0EE4A9AF0EE6A9A002825
:1005800004BFB0EE4B9AF0EE6B9A002084ED109B06
:1005900084ED188BC4F8508004B0BDEC088B01B01A
:1005A000BDE8F08F00BF00BF0000000000000000A9
:1005B0004FF0000CC0E90ECCC0E910CCC0E912CC61
:1005C00000F1180C8CEC060B80F8311080F830200C
:1005D00080ED1C3B80ED1E4B83667047F0B581B00B
:1005E0002DED028B0C460129054602D195F88000BD
:1005F00030B185F88040BDEC028B01B0F0BD00BF8A
:1006000095ED101B95ED1E8B95ED0E0B56EC117BA9
:1006100053EC182B3846314685ED161B85ED180B2B
:1006200002F002F940B185ED168B85F88040BDECF3
:10063000028B01B0F0BD00BF95ED1C8B384653EC2A
:10064000182B314602F0F7F8002808BF85ED168B0D
:1006500085F88040BDEC028B01B0F0BDB0B504461A
:1006600000F0E6F8054640F20000C2F20000007813
:10067000611C18BF044400BF00F0DAF8401BA04220
:10068000FAD3B0BD2DE9F04F82B000F13E4707F13B
:10069000FF77860546EA972741F60046C4F2020630
:1006A000082243F6004EB04208BF0722C4F2010EF2
:1006B000072F38BF3A46002600274FF00008009267
:1006C00009E000BF08F101080237B8F1100F06F188
:1006D000040600F0A3800D68012202FA08F415EA6E
:1006E0000409EFD0D1F804B003220BF0030CACF1F5
:1006F0000105BA40012D6FEA020A0FD88268CD6861
:1007000002EA0A02BD402A4382604268A243CBF358
:10071000001404FA08F42243426005E0BCF1030F20
:1007200002D14FF0030C1EE0C2688C6802EA0A0294
:10073000BC402243BCF1020FC26014D16FF003022F
:1007400002EA58020244D2F820C006F01C040F232B
:100750000D69A3402CEA0303A5402B431362D1F893
:1007600004B00BF0030C02680CFA07F302EA0A0269
:100770001A431BF4403F0260A4D0002243F6440316
:100780000192C4F202031A684FF6084C42F4804208
:100790001A601A68CFF6FF7C02F480420192019A37
:1007A00028F00302724452F80C3006F00C050F24B6
:1007B000AC40A343009C04FA05F52B4342F80C30EF
:1007C000DEF808204B6842EA090543F60C4CDC02CF
:1007D00058BF22EA0905CEF80850C4F2010CDCF833
:1007E00000209C0242EA090558BF22EA0905CCF81C
:1007F0000050DEF804209C0342EA090558BF22EAB3
:100800000905CEF80450DEF80020DB0342EA0905B2
:1008100058BF22EA0905CEF8005053E702B0BDE800
:10082000F08F0000002A08BF0904816170470000B2
:1008300040F2FC10C2F200000068704740F2000075
:1008400040F2FC11C2F20000C2F2000100780A6816
:10085000104408607047000080B543F60040C4F2C1
:100860000200016841F400710160016841F4806197
:100870000160016841F480710160032000F086F896
:100880000F2000F005F800F027F8002080BD0000E0
:1008900070B540F20006C2F2000640F2080132785C
:1008A000C2F200014FF47A730968B3FBF2F2044616
:1008B000B1FBF2F1084600F039FB0F2C4FF00105B7
:1008C00008D838B94FF0FF3021460022002500F04B
:1008D00031F87460284670BD82B0002043F64001B4
:1008E0000190C4F202014A6842F480424A604A68B8
:1008F00002F480420192019A0090086840F0805012
:100900000860086800F080500090009802B07047BE
:10091000002848BF704700F01F01012202FA01F1D0
:100920001C2202EAD0004EF20012CEF200028150E8
:100930007047000010B54EF60C5CCEF2000CDCF8EF
:100940000030C3F3022E8EF00704042C28BF0424C9
:10095000BEF103034FF0FF3E0EFA04F438BF00234C
:10096000A14399400EFA03F39A43114300F00F029A
:1009700000F160430901043A03F56443624400282E
:1009800048BF02F10C03197010BD00004EF60C5167
:10099000CEF200010A684FF6FF031A4060F30A2204
:1009A00042F0806040F0FD7008607047002804BF8E
:1009B000012070472DE9F04143F60808C4F202080F
:1009C0000446D8F8F8030D4600F00700884207D225
:1009D00088F8F853D8F8F80300F00700A84277D158
:1009E0002068810717D5410705D5D8F8001041F4D4
:1009F000E051C8F80010010705D5D8F8001041F4FF
:100A00006041C8F80010D8F80010A26821F0F00189
:100A10001143C8F80010C00740D1D8F8F80300F01F
:100A20000700A84207D988F8F853D8F8F80300F06F
:100A30000700A8424CD12068410707D5D8F800101C
:100A4000E26821F4E0511143C8F80010000708D50E
:100A5000D8F80000216920F4604040EAC100C8F8DD
:100A6000000000F055F8D8F8001042F68402C1F3F7
:100A70000311C0F60002515C40F2080220FA01F1B5
:100A800040F20400C2F200000068C2F200021160ED
:100A9000FFF7FEFE0020BDE8F08100BF6068811E08
:100AA000022907D258F8081C89015CBF0120BDE863
:100AB000F08111E0012807D158F8081C89035CBFB8
:100AC0000120BDE8F08107E058F8081C890703D42D
:100AD0000120BDE8F08100BFD8F8001021F003012B
:100AE0000843C8F80000FFF7A3FE064641F2883726
:100AF000D8F80000616800F00C00B0EB810F8CD0DA
:100B0000FFF796FE801BB842F2D90320BDE8F081C2
:100B100010B543F60404C4F20204606800F00C004F
:100B200008280BD0042819BF42F20040C0F2F4009C
:100B300047F64000C0F27D1010BD00BF206821685C
:100B40002368490247F64001C0F27D1100F03F02E0
:100B5000C3F388105CBF42F20041C0F2F401A1FB74
:100B600000010023FFF796FB21680222C1F3014137
:100B700002EB4101B0FBF1F010BD0000002804BF02
:100B8000012070472DE9F04182B00446007843F619
:100B90000006C007C4F202060CD0B06800F00C00DA
:100BA000042840F081803068800303D56068002805
:100BB00000F06A81207880071BD5B06810F00C0F18
:100BC00009D0B06800F00C00082840F087807068F9
:100BD000400200F183803068800703D5E068012877
:100BE00040F052813068216920F0F80040EAC100ED
:100BF00030602078000713D4207840072AD4A569F4
:100C0000002D00F03C81B06800F00C00082840F096
:100C1000A180012D40F01081012002B0BDE8F081DB
:100C20006069002840F20000C4F2472000F07E8096
:100C30000121C0F8801EFFF7FBFD0546706F80079D
:100C4000DAD4FFF7F5FD401B0228F7D9032002B0E4
:100C5000BDE8F081306C5FEAC0080AD40020019042
:100C6000306C40F080503064306C00F08050019067
:100C7000019847F20007C4F200073868C00547D45E
:100C8000386840F480703860FFF7D2FD054600BF39
:100C90003868C0053CD4FFF7CBFD401B0228F7D9CC
:100CA000032002B0BDE8F081B06800F00C00082815
:100CB00003D1706840023FF576AF6068B0F5803FC1
:100CC00007D0B0F5A02F40F09B80306840F4802022
:100CD0003060306840F4803030609BE0E06800288D
:100CE0005CD00020C4F2472001210160FFF7A0FD85
:100CF000054600BF306880073FF574AFFFF798FDE9
:100D0000401B0228F6D9032002B0BDE8F08100BFE5
:100D1000A068012805D0052854D1306F40F00400A8
:100D20003067306F40F00100306755E00021C0F8B7
:100D3000801EFFF77DFD0546706F80077FF55CAF75
:100D4000FFF776FD401B0228F6D9032002B0BDE86C
:100D5000F08100BF0027C4F2472700203866FFF764
:100D600067FD022D05460DD13068800140F190806D
:100D7000FFF75EFD401B02284FF00300F4D902B0DC
:100D8000BDE8F0813068800179D5FFF751FD401B47
:100D900002284FF00300F5D9F1E700BF0020C4F2AC
:100DA000472000210160FFF743FD054630688007BA
:100DB0007FF51FAFFFF73CFD401B02284FF00300FB
:100DC000F4D9DCE7316F002821F001013167316F80
:100DD00021F0040131677DD0FFF72AFD054641F27D
:100DE000883700BF306F800700F18680FFF720FD55
:100DF000401BB842F6D9032002B0BDE8F08100BF25
:100E00003168002821F480313160316821F480217B
:100E100031607BD0FFF70CFD054600BF30688003D2
:100E20003FF5C8AEFFF704FD401B6428F6D9032048
:100E300002B0BDE8F08100BF7068E16900F4800293
:100E40008A4221D1216A00F03F028A421CD147F632
:100E5000C071626A0140B1EB821F15D1A16A4FF6E1
:100E6000FF73C903994300F44032A1F580318A42EF
:100E70000AD1E16A00F07060B0EB016F04D100208C
:100E800002B0BDE8F08100BF012002B0BDE8F081F2
:100E900004F11C052FCD084340EA8210D9034FF618
:100EA000FF729143A1F5803140EA0560084370600C
:100EB00001203866FFF7BCFC044600BF30688001A3
:100EC000DDD4FFF7B5FC001B02284FF00300F5D975
:100ED00055E700BFFFF7ACFC054641F2883700BF7D
:100EE000306F800708D5FFF7A3FC401BB8424FF0D6
:100EF0000300F5D943E700BFB8F1000F3FF57FAE1F
:100F0000306C20F08050306479E600BFFFF790FC31
:100F1000054600BF306880037FF54CAEFFF788FCC4
:100F2000401B64284FF00300F4D928E7411E00203D
:100F3000B0EB116F1CBF012070474EF21002CEF2D1
:100F4000000251604EF62351CEF20001F0230B70E7
:100F500007219060116070477047000070470000E3
:100F600090F83C20012A04BF02207047B0B501F17F
:100F700008053CCDD1E900CE23F47C5322F4705215
:100F80001A432EF4F0431A432CF4E0431A4324F49A
:100F9000C0431A432A43C96922F4804203681143BB
:100FA0005964002180F83C10BDE8B0400846704705
:100FB00041B1082910D0042914BF00F1450200F105
:100FC00043020BE090F84220012A1CBF0120704729
:100FD000022280F8422013E000F144021278012A34
:100FE0001CBF012070470222082907D0042914BF22
:100FF00080F8452080F8432002E000BF80F84420BC
:10100000006801F00F010422036A02FA01F123EAE9
:1010100001020262026A11430162416C41F2FF72F5
:10102000C4F2000241F40041904241640EDC40F2FF
:10103000FF71C4F20001884216DCB0F1804F2BD062
:1010400040F20041C4F2000124E000BF40F2FF3151
:10105000C4F20101884213DC41F60001C4F2000130
:10106000884219D0002113E040F60001C4F20001CB
:10107000884211D040F60041C4F200010AE000BFEE
:1010800044F20001C4F20101884205D040F200415F
:10109000C4F20101884204D1816801F007010629E8
:1010A00003D0016841F00101016000207047000099
:1010B00010B5026801F00F0E4FF0040C146A0CFA20
:1010C0000EF324EA03031362136A1362146A41F2F3
:1010D00011131C4206D1D2F820C040F244441CEA4D
:1010E000040F0DD0146A1C4211D1136A40F244441B
:1010F00023420CD1136823F00103136007E000BF03
:10110000546C24F400445464146A1C42EDD0082941
:101110000CD0042910D000294FF0010114BF80F831
:10112000451080F84210002010BD00BF012180F85A
:101130004410002010BD00BF012180F843100020A2
:1011400010BD0000002804BF0120704710B5044600
:1011500090F83D0028B9002084F83C00204600F0BB
:101160001FF8022084F83D002068211D00F05CFD7E
:10117000012084F8460084F83E0084F83F0084F89B
:10118000400084F8410084F8420084F8430084F869
:10119000440084F8450084F83D00002010BD0000A4
:1011A000006841F20001C4F20001884218BF704794
:1011B00080B582B00020019043F64000C4F20200E6
:1011C0000168032241F0100101600068012100F074
:1011D0001000019001983620FFF7ACFB362002B0DA
:1011E000BDE88040FFF794BB90F83D1001291CBF7B
:1011F00001207047022180F83D10006841F2FF7223
:10120000C168C4F20002904241F00101C1600DDCEE
:1012100040F2FF71C4F20001884215DCB0F1804F4A
:101220002AD040F20041C4F2000123E040F2FF3135
:10123000C4F20101884213DC41F60001C4F200014E
:10124000884219D0002113E040F60001C4F20001E9
:10125000884211D040F60041C4F200010AE000BF0C
:1012600044F20001C4F20101884205D040F200417D
:10127000C4F20101884206D1816801F00701062904
:1012800004BF00207047016841F0010101600020A7
:1012900070470000002804BF012070472DE9F04787
:1012A000044690F83D000D4628B9002084F83C0023
:1012B000204600F049F8022084F83D00206844F2FE
:1012C0000702816891438160211D00F0ADFC206818
:1012D0004FF6FF7881688269D0F820C0D5E9003EDA
:1012E000D5E9026A43EA0109AB6922EA080246EA43
:1012F00003234FF6FC46B343D5E9076742EA0A02E7
:1013000029691A4342EA062242EA01112CF0AA0294
:101310006B6942EA0E0241EA073142EA0312C0F861
:10132000089081610262012084F8460084F83E0042
:1013300084F83F0084F8420084F8430084F83D00BC
:101340000020BDE8F0870000F0B585B040F2004411
:10135000C4F202040068A4F5FE31884202D005B050
:10136000F0BD00BF002643F630000096C4F2020034
:1013700001686D4641F0040101600168022701F037
:101380000401009100990096016841F00401016098
:10139000016801F00401009100990096016941F093
:1013A00004010161016901F00401009100990096B6
:1013B000016941F0040101610069294600F004005F
:1013C00000900098402000902046CDE90176CDE9BC
:1013D0000377FFF757F98020CDE90007204629461B
:1013E000CDE902670497FFF74DF91E200221002284
:1013F000FFF7A0FA1E20FFF78BFA05B0F0BD000042
:1014000080B590F83E2090F83F3090F842E090F898
:1014100043C004290AD0B9B9012A4FF0010208BF1C
:10142000BEF1010F34D0104680BD00BF012B4FF03C
:10143000010208BFBCF1010FF5D1022180F83F1075
:1014400080F8431000681EE0012A4FF0010208BF37
:10145000012BE8D1BEF1010FE5D1BCF1010FE2D1C2
:10146000022280F83E2080F83F2080F8422080F859
:10147000432091B10068016A21F001010162016A13
:1014800041F00101016210216FF0100209E000BF7C
:10149000022180F83E1080F84210006801216FF0B0
:1014A0000102036A1A400262026A11430162016882
:1014B000002241F001010160104680BD704700002C
:1014C00070B504460068C5680669B10716D515F001
:1014D000020113D06FF002010161012121778069BF
:1014E000800703D02046FFF7E9FF05E0204600F023
:1014F0008FF8204600F014FA00202077700719D5E5
:1015000015F0040016D020686FF00401016102217B
:101510002177806910F4407F04D02046FFF7CEFF8A
:1015200006E000BF204600F073F8204600F0F8F90E
:1015300000202077300717D515F0080014D0206858
:101540006FF00801016104212177C069800703D091
:101550002046FFF7B3FF05E0204600F059F820468B
:1015600000F0DEF900202077F00619D515F0100004
:1015700016D020686FF01001016108212177C06941
:1015800010F4407F04D02046FFF798FF06E000BF2C
:10159000204600F03DF8204600F0C2F900202077F8
:1015A000F00718BF15F0010002D1300609D412E08F
:1015B00020686FF001010161204600F099FA3006C1
:1015C00009D515F0800006D020686FF08001016118
:1015D0002046FFF7C1FC700609D515F0400006D083
:1015E00020686FF040010161204600F0A5FAB006C6
:1015F00058BF70BD15F0200008D021686FF02002A0
:1016000020460A61BDE87040FFF7A8BC70BD00002D
:101610007047000090F83C30012B04BF0220704757
:101620004FEAB202032A00F201812DE9F043DFE81C
:1016300002F0033F7FBF00BF036840F200461C6A10
:101640001A6A24F0020422F001021A621A46D3F840
:1016500004C052F818EF8F6843F48065C4F20106A5
:10166000B54244EA070405D1CF6824F00C0427F002
:1016700004073C430F68B54206D1D1E905582CF464
:1016800040762E4346EA080C2EF073063743C3F823
:1016900004C09F614F6809695F631C629F6947F0DE
:1016A00008079F619F6927F004079F61B2E000BFB0
:1016B000036840F200481C6A1A6A24F0200422F0F1
:1016C00010021A621A46D3F804C052F818EF8F6855
:1016D00043F48065C4F20108454544EA071407D184
:1016E000CF686FF0400624F0C00406EA07163443C2
:1016F000D1F80090454506D1D1E905562CF4406754
:101700002E4347EA860C2EF4E64747EA0927C3F83A
:1017100004C09F614F6809699F631C629F6947F419
:1017200000679F619F6927F480679F6171E000BF38
:10173000036840F200481C6A1A6A24F4007422F418
:1017400080721A621A46D3F804C052F81CEF8F68F0
:1017500043F48065C4F20108454544EA072408D1F2
:10176000CF6840F2FF463F0224F4406427EA0606B1
:101770003443D1F80090454506D1D1E905562CF403
:1017800040572E4347EA061C2EF0730747EA090725
:10179000C3F804C0DF614F680969DF631C62DF6959
:1017A00047F00807DF61DF6927F00407DF6131E0F8
:1017B000036840F20045D3F820C01A6A43F48067FA
:1017C00022F480521A621A465C6852F81CEFD1F873
:1017D00000808E68C4F20105AF4204D14D6924F443
:1017E000804444EA85142CF4005747EA06372EF467
:1017F000E64646EA08265C60DE614E6809691E64BA
:101800001F62DF6947F40067DF61DF6927F48067E3
:10181000DF6109021368194311600021BDE8F0433C
:10182000002280F83C200846704700BF01210022BA
:1018300080F83C2008467047002804BF012070470C
:1018400010B5044690F83D0028B9002084F83C000B
:10185000204600F01FF8022084F83D002068211D7A
:1018600000F0E2F9012084F8460084F83E0084F894
:101870003F0084F8400084F8410084F8420084F876
:10188000430084F8440084F8450084F83D000020BB
:1018900010BD0000B0B586B000680025C4F2010597
:1018A000A84201D006B0B0BD002043F6300101903F
:1018B000C4F202010A6801AC42F001020A600A683F
:1018C00002F001020192019A01900A6842F00202BC
:1018D0000A600A6802F002020192019A01904A69C4
:1018E00042F001024A61496901F001010191019947
:1018F0004FF4807101910221CDE902100120049181
:10190000059005F580302146FEF7BCFE4FF40050EF
:10191000019005F582302146FEF7B4FE06B0B0BD59
:101920007047000041B1082910D0042914BF00F10C
:10193000410200F13F020BE090F83E20012A1CBF5B
:1019400001207047022280F83E2013E000F140029F
:101950001278012A1CBF012070470222082907D0F3
:10196000042914BF80F8412080F83F2002E000BF26
:1019700080F84020006801F01F010122036A02FA8A
:1019800001F123EA01020262026A114341F2FF728D
:10199000C4F200029042016210DC40F2FF71C4F216
:1019A000000188421CDCB0F1804F3FD040F2004182
:1019B000C4F20001884239D03DE000BF40F2FF315F
:1019C000C4F20101884219DC41F60001C4F20001B1
:1019D00088422BD00021C4F2010188421AD02AE0AB
:1019E00040F60001C4F2000188421FD040F60041D9
:1019F000C4F20001884219D01DE000BF44F200018A
:101A0000C4F20101884211D040F20041C4F2010148
:101A1000884210D1416C40F2004340F48062C4F22D
:101A2000010341F400419A42416404D1816801F00C
:101A30000701062903D0016841F00101016000207F
:101A40007047000010B5026801F01F0E4FF0010C46
:101A5000146A0CFA0EF324EA0303136240F2004303
:101A6000D2F820C042F48064C4F201039C42C2F860
:101A700020C009D1136A41F21114234204D1136A20
:101A800040F2444423420FD0136A41F2111423421E
:101A900013D1136A40F2444423420ED1136823F059
:101AA0000103136009E000BF536C23F40043536447
:101AB000136A41F211142342EBD008290CD00429F7
:101AC00010D000294FF0010114BF80F8411080F8B8
:101AD0003E10002010BD00BF012180F84010002002
:101AE00010BD00BF012180F83F10002010BD000094
:101AF000006841F20001C4F20001884214D040F6AF
:101B00000001C4F20001884218BF704740F2700023
:101B1000C2F20000816A0A680168D2064CBF01392E
:101B200001310160704700BF40F27000C2F2000056
:101B3000816A496A0068704770470000FEE700004C
:101B4000FEE70000FEE7000070470000704700005D
:101B5000FEF774BEB0B592B0002443F640000B947B
:101B6000CDE90944CDE907440594CDE90344CDE925
:101B700001440094C4F202000168022541F0805142
:101B80000160006800F080500090009847F200006B
:101B90000094C4F20000016841F4804101600068D3
:101BA00000F48040009000980120099010200A90D5
:101BB00008200E90A820CDE90F050420119006A85A
:101BC0000695CDE90C54FEF7D9FF98B90F20CDE961
:101BD00001054FF4A05004904FF48050059001A8E7
:101BE00005210394FEF7E2FE002804BF12B0B0BD49
:101BF00072B600BF72B600004EF68850CEF20000FA
:101C0000016841F4700101607047000040F270000B
:101C1000C2F200002830FFF753BC000040F2B410BD
:101C2000C2F20000FFF74CBCB0B540F6FF3E0568BD
:101C3000C4F2000E40F2004C7045C4F2010C27DCE7
:101C4000B0F1804F31D040F20043C4F2000398421B
:101C50002BD040F60003C4F20003984225D041F691
:101C6000FF73C4F2000398422ADC70453CDCB0F1FB
:101C7000804F5FD040F20043C4F20003984259D035
:101C800040F60003C4F20003984253D057E000BF6F
:101C900040F60043C4F20003984206D0604504D0E9
:101CA0000023C4F201039842D9D14B6825F0700299
:101CB00043EA020541F6FF73C4F200039842D4DD03
:101CC00043F6FF73C4F20103984221DC42F20003A1
:101CD000C4F2000398422DD00023C4F201039842BD
:101CE00028D0604526D02AE040F60043C4F2000325
:101CF00098421FD041F60003C4F20003984219D065
:101D000041F60043C4F20003984213D017E000BF2D
:101D100044F20003C4F2010398420BD044F60003DE
:101D2000C4F20103984205D044F20043C4F2010317
:101D3000984204D1CB6825F4407243EA02050A6850
:101D40008C684B69C46240F480648262644504BF5D
:101D500009690163026825F0800142F00402194319
:101D60000260012242610160B0BD0000FEE7000098
:101D7000B0B590B040F2E004C2F2000400220025A9
:101D8000C4F201028023C4E902502046C4E90021C4
:101D9000C4E90455A361FFF74FFD6020CDE90905B3
:101DA00002200B9008200C900420CDE90D0509A914
:101DB000204600220F95FFF72DFC4FF40060CDE97F
:101DC00001050F20CDE9040501A9204603950695DC
:101DD0000895FFF7C5F810B0B0BD000010B540F28F
:101DE000B414C2F2000441F200020023C4F2000263
:101DF000C4E902302046C4E900212361FFF7A2F9BB
:101E00002046FFF7F1F920686FF00101016110BD74
:101E100070B586B0002643F630000196C4F2020089
:101E2000016841F2000441F0100101600068C4F251
:101E3000020400F010000190019840F2044001906B
:101E40000120CDE9020601A920460496FEF71AFCFE
:101E5000204640F204410022FEF7E4FC40F2E00597
:101E6000C2F2000528460021FFF7ECFD28460021BC
:101E7000FFF71EF920464FF480610022FEF7D2FCE6
:101E800028460021FFF7DEFD28460021FFF710F964
:101E900028460021FFF746FD28680122C16A0F2964
:101EA00018BF466320464FF48061FEF7BBFC06B0C6
:101EB00070BD000041F20000C4F202004FF48061E6
:101EC0000122FEF7AFBC000040F27000C2F2000039
:101ED000816A496A006801EB0040704710B540F222
:101EE0007002C2F20002032342F8043F40F60003EE
:101EF000C4F2000314469162002144F8243FC2E971
:101F00000C0101200A23C2E90110C2E90313C2E94E
:101F10000510C2E9071320461146FFF7BBF920461A
:101F20000021FFF76DFA20460421FFF769FA2068C7
:101F3000C16841F00101C1606FF00101016110BD94
:101F400082B04EF21007CEF20007FEF785FCFFF7D5
:101F500001FE42F2CF0000210025FFF709FFFFF745
:101F600057FF4FF6FF700021FFF7B8FF40F2E73050
:101F70005321FFF733FF40F22814C2F200049FED13
:101F8000340B9FED351B9FED362B9FED373B9FEDBF
:101F9000384B2046002100220A23FEF709FB204689
:101FA0000121FEF71BFBFFF785FF9FED330B44F28A
:101FB000000040F2B018C4F27F00C2F2000856ECF4
:101FC00010AB4FF47A79C4E9125002E00120FEF719
:101FD00045FBFFF779FFC8F8000000F09BF994ED8E
:101FE000121B41EC100B51EC110B5246334684EDA1
:101FF0000E0B00F09FF841EC100B84ED120B3868CB
:10200000FEF716FC7968BA684D1CA91A0191396867
:10201000C90304D5FEF70CFCB968691A019101994E
:1020200001FB09F1B1FBF5F100FB09112046FEF7B8
:10203000EBF90028CAD194ED100B51EC100B00F015
:1020400047F800EE100A00F01BF8BFE700BF00BF22
:1020500000000000000008409A9999999999B93FA9
:10206000000000000000E03F0000000000408FC0C2
:102070000000000000408F40000000000000F03F22
:10208000B0B540F2E004C2F20004BDEEC00A204642
:10209000002110EE105AFFF7D5FC20460021FFF773
:1020A00007F820460021002D06D4FFF73BFC2068EE
:1020B000A9B2C26A06E000BFFEF77AFF2068694253
:1020C000C26A89B20F3A8A4288BF4163B0BD00003C
:1020D00021F0004201F00043A2F16052B2F5801FEE
:1020E00028BFD2F17F6C0BD95FEA001C43EAC20221
:1020F00042EB507018BF704728BF20F001007047B6
:10210000B2F5801FBCBF184670474FEA410C1CF562
:10211000001F02D2084600F0B0BB70B500F034FAE0
:1021200000000089FFF7F6BF4FF00040A0F58000E7
:102130007047000010B591EA030F48BF83F00043D9
:1021400000F17E82841A71EB030C05D2121943EB65
:102150000C03001B61EB0C014FEA1154A4EB135C60
:10216000DFF81CE11EEA430F18BF9EEA445F00F04F
:10217000748021EA045123EA0E0343F48013DCF156
:10218000200E32D322FA0CFE10EB0E0023FA0CFEC6
:1021900041EB0E01CCF1200E03FA0EFE10EB0E0007
:1021A000CCF1200E51F10001B1F5801F32D201EBCC
:1021B000045112FA0EF2BDE8104058BF7047401C9F
:1021C00038BF5FEA420218BF7047002814BF20F0F2
:1021D000010041F100014FEA410313F5001F38BF30
:1021E0007047A1F1C04100F01DBA012A43EB030280
:1021F000ACF1200CDCF11F0E32BF4FF0000E23FAC1
:102200000CF310EB030041EB0451B4EB115FD0D0A1
:10221000A1EB045101F58011490801EB04515FEA7B
:1022200030000ED350F1000038BF12FA0EFE08D174
:10223000BDE81040C9E7401C38BF5FEA4202CAD17E
:10224000C3E7BDE810404FEA410313F5001F38BF54
:102250007047A1F1C04100F0E5B99EEA445F08D0A3
:1022600011EA5E0FBDE8104004BF01F000410020FC
:102270007047BDE8104070B500F086F964FBBE3EC3
:102280000000E0FF491058BFC1F140415B1058BF4A
:10229000C3F140438B42EFF30080704751EA030CD7
:1022A00017D41CF5801F58BFBCF5801F00F10680B5
:1022B000994218BF704708BF9042704707D711F581
:1022C000801F58BF13F5801F19D499427047894267
:1022D00070471CF5801F08D5BCF5801FF7D58B42D1
:1022E00018BF704708BF824270474FF4001C1CEBB8
:1022F000410F38BF1CEB430F01D28B42704770B5C2
:1023000000F042F9922449004FF000514FF0805301
:10231000FFF7B8BF10F0004248BF4042B0FA80F368
:1023200010FA03F10AD0C3F11D0303F5806302EB39
:1023300003524FEA415002EBD12170474FF00000A9
:102340007047000051EA030C17D41CF5801F58BFDA
:10235000BCF5801F00F10680994218BF704708BF86
:102360009042704707D711F5801F58BF13F5801FA3
:1023700019D499427047894270471CF5801F08D5CF
:10238000BCF5801FF7D58B4218BF704708BF82424B
:1023900070474FF4001C1CEB410F38BF1CEB430F80
:1023A00001D28B42704770B500F0EEF892244900DC
:1023B0004FF080514FF00053FFF764BF51EA030C18
:1023C00017D41CF5801F58BFBCF5801F00F1068094
:1023D000994218BF704708BF9042704707D711F560
:1023E000801F58BF13F5801F19D499427047894246
:1023F00070471CF5801F08D5BCF5801FF7D58B42B0
:1024000018BF704708BF824270474FF4001C1CEB96
:10241000410F38BF1CEB430F01D28B42704770B5A0
:1024200000F0B2F8922449004FF000514FF0805371
:10243000FFF728BF70B5DFF848C11CEA111E1EBFA8
:102440001CEA13159EEA0C0F95EA0C0F00F06F8042
:1024500081EA03044EEAD47EAE4421EA4C1123EA19
:102460004C1341F4801143F48013AEF17F7EA1FB45
:10247000024CA0FB0365361955EB0C05A1FB034C80
:102480004CF10003A0FB021C16EB0C06654153F156
:102490000003094218BF46F0010613F4007F0BD178
:1024A0004FEA03314FEA053041EA155140EA165030
:1024B00034036FF003020AE04FEAC3214FEAC5205C
:1024C00041EA555140EA5650F4026FF0020202EB25
:1024D0002E4201EB025585EACE710AD05FEA440C28
:1024E00018BF24F0004450F1000041F1000120EA3F
:1024F000D47040F2FE7C624500D270BDA84214BF89
:102500004FF080444FF04044002E08BF0024BEF13D
:10251000806FA8BFA1F1C041BDE8704080F2828009
:1025200001F1C04101F000414FF0000070470CEA9A
:1025300013159EEA0C0F18BF95EA0C0F06D081EA1E
:10254000030E4FF000000EF0004170BD00F01CF8CB
:102550008900013E00F007B800F009B84FEA430CCB
:102560005FEA5C5C08D081EA030100F05BB84FEAE7
:10257000410C5FEA5C5CF6D102494FF00000704705
:102580000000FF070000F87F0EF1020E2EF0030E90
:102590005EF8046B364205D4012A43EB030515F5BA
:1025A000001F12D8012841EB010C1CF5001F0CD8AC
:1025B0000ED14FEAD17C0CEB4C0C0CF1020C15F552
:1025C000001F08BF4CEBD37C04E04FF0080C01E087
:1025D0004FEAD37C0CEB4C0526FA05F606F007060D
:1025E000B6F1040C06D20EEB860CBDE870404CF040
:1025F000010C6047DFE80CF0090B02024FF00041CC
:10260000A1F500214FF0000070BD194610460128C9
:1026100051EB010418BFD4F5001484BF002001F071
:10262000004170BD0808A0F500114FEA3101704764
:1026300010B591EA030F48BF83F000433FF582AD28
:10264000841A71EB030C07D28CF0004C121943EB87
:102650000C03001B61EB0C014FEA1154A4EB135C5B
:10266000DFF8A4E11EEA430F18BF9EEA445F00F0C2
:10267000B48021EA045123EA6E035242C3EB6E0395
:1026800038BF5B1EDCF1200E25D322FA0CFE10EBC6
:102690000E0043FA0CFE41EB0E01CCF1200E03FAC2
:1026A0000EFE10EB0E00CCF1200E51F1000129D4EA
:1026B00001EB045112FA0EF2BDE8104058BF70470A
:1026C000401C1CBFB2F1004F704700280CBF491CD2
:1026D00020F00100704712EB020E43EB030218BF1B
:1026E0004FF0010E4EEA4202ACF1200CDCF11E0E5E
:1026F00056D943FA0CFE10EB0E00CCF11E0E51F130
:10270000FF31D5D50EF1010E12FA0EFE404141EB1C
:10271000010101EB445C5FEA5C5C10D901EB045100
:1027200010EBDE7038BFBEF1004FBDE8104018BF9F
:10273000704700280CBF491C20F00100704734D2BC
:102740004FEAD42C24F4006411F500111BD0B1FA27
:1027500081F20B3AA41AA41ED2F12003914030FA60
:1027600003F31943904001EBCC7101EB0451002CB1
:10277000BDE81040A8BF704701F1C04101F0004121
:102780004FF000007047B0FA80F310FA03F102D165
:10279000BDE810407047E41A173C4805C90AE2E753
:1027A00001EB0451BDE81040704749104FEA30007A
:1027B00001EB0451BDE8104002E04FF0000170470A
:1027C0004A0008BF0042F8D0B2F5001F28BF70478A
:1027D00001F000414FF0000070479EEA445F07D0CF
:1027E00011EA5E0FBDE8104004BF002100207047D1
:1027F000BDE8104070B5FFF7C7FE00BF40DFF63EF2
:10280000104683F0004170470000E0FF10B5FFF76D
:1028100045FD0CBF0120002010BD10B5FFF73EFDA7
:1028200014BF0120002010BD10B5FFF78BFD8CBF39
:102830000120002010BD10B5FFF784FD2CBF012042
:10284000002010BD10B5FFF7B9FD94BF0120002096
:1028500010BD10B5FFF7B2FD34BF0120002010BD40
:10286000F1EE100A4FF6FF71C0F2C03120EA01000C
:1028700040F04070E1EE100A7047FF2141EAD0506D
:10288000C0057047000000000000000001020304C2
:1028900006070809B8280008000000201000000002
:1028A000EC010008C828000810000020F007000014
:1028B0000C020008000000000100000010000000F1
:0828C0000024F40000000000F8
:040000050800018965
:00000001FF
